:100000000C9462000C948A000C948A000C948A0070
:100010000C94330B0C948A000C948A000C948A0084
:100020000C948A000C948A000C948A000C948A0028
:100030000C948A000C948A000C948A000C948A0018
:100040000C94A3080C948A000C94290A0C94030ABB
:100050000C948A000C948A000C948A000C948A00F8
:100060000C949B060C948A000000000024002700DA
:100070002A0000000000250028002B0000000000DE
:1000800023002600290004040404040404040202DA
:100090000202020203030303030301020408102007
:1000A0004080010204081020010204081020000012
:1000B0000008000201000003040700000000000027
:1000C00000002C1311241FBECFEFD8E0DEBFCDBF40
:1000D00012E0A0E0B1E0ECE0FDE202C005900D927C
:1000E000A833B107D9F724E0A8E3B2E001C01D921C
:1000F000AE36B207E1F710E0C2E6D0E004C02197C7
:10010000FE010E943614C136D107C9F70E94590B6F
:100110000C9484160C940000009769F0FC01019087
:100120000020E9F73197AF01481B590BBC0184EA65
:1001300093E00C94ED0880E090E008958F929F92F8
:10014000AF92BF92CF92DF92EF92FF920F931F93E5
:10015000CF93DF93809152039091530397FD9CC1FD
:100160000E94C9078C01C0915A03D0915B030E9481
:10017000970820917F03309180032115310539F4D0
:100180000C171D0709F088C121E030E0EEC02130D6
:10019000310509F08EC0C0908103D0908203E090B9
:1001A0008303F09084039B01AC012C193D094E0997
:1001B0005F0969017A010C171D07F9F000915403DA
:1001C0001091550320E030E0C016D106E206F30698
:1001D00028F41092800310927F035EC122E030E089
:1001E0003093800320937F0360938503709386038D
:1001F00080938703909388034FC100915803109117
:10020000590320E030E00C151D052E053F05E8F5EB
:10021000609385037093860380938703909388038C
:1002200081E080935C03E0916903F0916A03309769
:1002300009F00995E0916D03F0916E03309709F094
:100240000995E0916F03F0917003309729F0809148
:100250007103909172030995E0917903F0917A030B
:10026000309709F00995E0917B03F0917C0330977A
:1002700029F080917D0390917E03099586E090E0BE
:100280009093800380937F0307C1E0916B03F0910B
:100290006C03309709F400C1DF91CF911F910F914A
:1002A000FF90EF90DF90CF90BF90AF909F908F9096
:1002B00009942230310509F065C020916303309123
:1002C0006403232B31F42091650330916603232BC3
:1002D000C9F0C0908103D0908203E0908303F09036
:1002E00084034B015C018C189D08AE08BF08C090C8
:1002F0005603D0905703E12CF12CC814D904EA041A
:10030000FB0498F4E0915D03F0915E03309709F0EF
:100310000995E0915F03F0916003309709F459CF9C
:10032000809161039091620368C00C171D0709F06A
:10033000B3C000918503109186032091870330910B
:1003400088036B017C01C01AD10AE20AF30A00910A
:1003500054031091550320E030E00C151D052E05C7
:100360003F0508F099C023E030E0309380032093EC
:100370007F03609381037093820380938303909340
:1003800084038AC023303105D1F50C171D0709F409
:1003900083C00091810310918203209183033091E7
:1003A00084036B017C01C01AD10AE20AF30A0091AE
:1003B00054031091550320E030E00C151D052E0567
:1003C0003F0508F069C060938503709386038093AE
:1003D000870390938803E0916303F091640330975F
:1003E00009F00995E0916503F0916603309709F4EF
:1003F000F0CE80916703909168030995EACE26308C
:10040000310509F049C00C171D07E9F010925C0393
:10041000609385037093860380938703909388038A
:10042000E0917303F0917403309709F00995E0911E
:100430007503F0917603309709F4CBCE8091770362
:1004400090917803DACF609385037093860380934D
:1004500087039093880381E080935C03E0917903A4
:10046000F0917A03309709F00995E0917B03F091C0
:100470007C03309789F080917D0390917E03DF911A
:10048000CF911F910F91FF90EF90DF90CF90BF9091
:10049000AF909F908F900994DF91CF911F910F9112
:1004A000FF90EF90DF90CF90BF90AF909F908F9094
:1004B0000895CF93809189030E94C907C82F809126
:1004C0008B030E94C907880F991FC82B80918F0347
:1004D000C81709F47FC0E0918F03409190035091B9
:1004E0009103609192037091930384E0E802F0011C
:1004F00011248C2F0C2E000C990BE82BF92BED5EA0
:10050000FE4F8081082E000C990BAA0BBB0B840FA9
:10051000951FA61FB71F8093900390939103A093FC
:100520009203B093930380918D0390918E03823058
:10053000910551F083309105C9F0019709F048C049
:10054000C33009F045C002C0C11142C08091900380
:1005500090919103A0919203B091930332E0B595ED
:10056000A795979587953A95D1F710C0CC2311F0B0
:10057000C33071F58091900390919103A091920303
:10058000B0919303B595A79597958795809394031C
:1005900090939503A0939603B093970380919C0347
:1005A00090919D03A0919E03B0919F038093A0031F
:1005B0009093A103A093A203B093A3030E94970872
:1005C00060939C0370939D0380939E0390939F037D
:1005D000C0938F03CF9108950C948C00CF93DF9339
:1005E000CDB7DEB728970FB6F894DEBF0FBECDBFEC
:1005F00098E0EBE0F1E0DE01119601900D929A9502
:10060000E1F79091AC03961710F46FEF690FFE01BC
:100610003196E60FF11DE60FF11D6081680F6068ED
:1006200040E084EA93E028960FB6F894DEBF0FBE50
:10063000CDBFDF91CF910C94D80ACF92DF92EF9289
:10064000FF920F931F9320918D0330918E032130E1
:1006500031050CF44BC023303105BCF0233031059B
:1006600009F044C0009190031091910320919203EE
:10067000309193036B017C01CC0CDD1CEE1CFF1C44
:10068000017011272227332715C000919003109184
:10069000910320919203309193036B017C0152E00E
:1006A000CC0CDD1CEE1CFF1C5A95D1F703701127F2
:1006B000222733270C291D292E293F290093900337
:1006C00010939103209392033093930360939403C8
:1006D0007093950380939603909397036093980388
:1006E0007093990380939A0390939B031F910F91AA
:1006F000FF90EF90DF90CF9008958F929F92AF92EE
:10070000BF920F931F93CF93DF93CDB7DEB7A1971F
:100710000FB6F894DEBF0FBECDBF19A2423008F469
:100720004AE08E010F5D1F4F842E912CA12CB12C1D
:10073000A50194010E940014E62FB901CA010150DD
:100740001109EA3014F4E05D01C0E95CD801EC93D2
:10075000232B242B252B61F7C8010E948C00A19626
:100760000FB6F894DEBF0FBECDBFDF91CF911F91C2
:100770000F91BF90AF909F908F9008958F929F920E
:10078000AF92BF92CF92DF92EF92FF920F931F939F
:10079000CF93DF936B017C01142F9B01AC010E946E
:1007A0007A16882319F08CE292E027C0460157019F
:1007B000E894B7F82FEF3FEF4FE75FE7C501B401CB
:1007C0000E947A1681110DC02FEF3FEF4FE75FE7D0
:1007D000C501B4010E94A91418161CF480E392E02C
:1007E0000CC02FEF3FEF4FE75FE4C701B6010E9457
:1007F0000816181684F484E392E0DF91CF911F91DC
:100800000F91FF90EF90DF90CF90BF90AF909F90AF
:100810008F900C948C002FEF3FEF4FE75FECC701F8
:10082000B6010E94A91487FDE6CF20E030E0A901BF
:10083000C701B6010E94A91487FF0DC041E06DE217
:1008400084EA93E00E94D80AF7FAF094F7F8F0945B
:10085000C1E0D0E002C0C0E0D0E000E060E070E0C5
:1008600080E09FE3101741F020E030E040E251E4E7
:100870000E94AE140F5FF6CFA70196010E943D14AF
:100880006B017C010E9427154B015C014AE00E942C
:100890007D03C80FD91F1123B9F1C501B4010E940E
:1008A00056159B01AC01C701B6010E943C146B01B7
:1008B0007C0141E06EE284EA93E00E94D80A21962E
:1008C00020E030E040E251E4C701B6010E940D167D
:1008D0004B015C010E9427156B01E12CF12C4AE0D1
:1008E000C701B6010E947D03C80FD91FC701B60119
:1008F0000E9456159B01AC01C501B4010E943C1435
:100900006B017C011150E1F6CE01DF91CF911F9177
:100910000F91FF90EF90DF90CF90BF90AF909F909E
:100920008F900895CF92DF92EF92FF921F93CF9313
:10093000DF938091090190910A011816190614F0AD
:1009400081E090E090930A0180930901C0E0D0E03B
:10095000C12CD12C760110E46091090170910A013B
:10096000C617D7070CF510937C0080917A0080643D
:1009700080937A0080917A0086FDFCCF60917800A8
:100980008091790070E0782B072E000C880B990B72
:100990000E9458159B01AC01C701B6010E943D148D
:1009A0006B017C012196D8CF072E000C880B990B88
:1009B0000E9458159B01AC01C701B6010E94AE14FC
:1009C00020E030E048EC52E40E943C1420E030E0AB
:1009D00040E251E40E940D1620E030E048E454E487
:1009E0000E94AE1420E030E0A9010E943D14DF9186
:1009F000CF911F91FF90EF90DF90CF90089540E04E
:100A000061E084EA93E00E94D80A8BE39FE10197BA
:100A1000F1F78091AD03882321F060E080E00C9431
:100A2000EE020895409198035091990360919A03C2
:100A300070919B038091940390919503A0919603EC
:100A4000B091970384179507A607B7079CF4809188
:100A5000940390919503A0919603B091970380938E
:100A6000980390939903A0939A03B0939B038FEFFD
:100A70009FEF0895409198035091990360919A03D4
:100A800070919B038091940390919503A09196039C
:100A9000B0919703481759076A077B079CF4809128
:100AA000940390919503A0919603B091970380933E
:100AB000980390939903A0939A03B0939B0381E0CA
:100AC00090E008958091940390919503A0919603EE
:100AD000B09197038093980390939903A0939A03FE
:100AE000B0939B0380E090E0089585ED8093BC0077
:100AF0008091BC0084FDFCCF1092DB0308954091EF
:100B00004A04262F30E0240F311D21323105DCF458
:100B10002091DB032430C9F4FC0180E090E08617CB
:100B200058F430914A042191DC01A65DBB4FA30F1C
:100B3000B11D2C930196F3CF80914A04680F609306
:100B40004A0480E0089581E0089582E008950895C0
:100B500008950895E091D3038091D203E81730F40B
:100B6000F0E0E65FFB4F808190E008958FEF9FEF0C
:100B700008959091D3038091D203981750F4E92FF0
:100B8000F0E0E65FFB4F208130E09F5F9093D3035E
:100B900002C02FEF3FEFC90108958091D20390E08A
:100BA0002091D303821B91090895CF92DF92EF9297
:100BB000FF920F931F93CF93DF937C01CB018A01A8
:100BC0002091D103222389F0EB016B01C40ED51EC5
:100BD000CC15DD0569F06991D701ED91FC9101908B
:100BE000F081E02DC7010995F3CF642F0E947F05A6
:100BF000C801DF91CF911F910F91FF90EF90DF908F
:100C0000CF900895CF93DF931F92CDB7DEB769835E
:100C10002091D1032223D1F02091D403203240F03F
:100C200021E030E0FC013383228380E090E015C0B6
:100C30008091D503E82FF0E0EF54FC4F9981908329
:100C40008F5F8093D5038093D40305C061E0CE010C
:100C500001960E947F0581E090E00F90DF91CF9197
:100C60000895833081F028F4813099F08230A1F02A
:100C700008958730A9F08830B9F08430D1F480919C
:100C800080008F7D03C0809180008F7780938000EB
:100C9000089584B58F7702C084B58F7D84BD089593
:100CA0008091B0008F7703C08091B0008F7D8093DA
:100CB000B00008953FB7F89480910604909107041E
:100CC000A0910804B091090426B5A89B05C02F3F48
:100CD00019F00196A11DB11D3FBFBA2FA92F982F62
:100CE0008827820F911DA11DB11DBC01CD0142E0DD
:100CF000660F771F881F991F4A95D1F70895CF92E5
:100D0000DF92EF92FF926B017C0141E06DE284EA99
:100D100093E00E94D80A66277727CB016C197D09DA
:100D20008E099F094AE00E947D030196FF90EF9093
:100D3000DF90CF9008951F920F920FB60F9211245B
:100D40002F933F934F935F936F937F938F939F93D3
:100D5000AF93BF93EF93FF938091B900887F803664
:100D600009F49CC068F5883209F45BC090F48031C6
:100D700009F454C038F4882309F4F6C0883009F423
:100D80004DC0F6C0883109F44CC0803209F45DC012
:100D9000EFC0803409F468C048F4803309F455C0CA
:100DA000883309F0E5C08093DA03D8C0803509F4B0
:100DB0004FC0883509F45DC0883409F0D9C0D6C069
:100DC000883909F4C7C0A8F4883709F467C038F433
:100DD000883609F463C0803709F460C0C9C0883818
:100DE00009F4B8C0803909F45FC0803809F0C0C088
:100DF0005BC0803B09F486C038F4803A09F466C0D1
:100E0000883A09F47FC0B4C0803C09F4A7C0883C8C
:100E100009F4A4C0883B09F48AC0AAC080910004E8
:100E200010C09091FF038091FE03981770F5E09138
:100E3000FF0381E08E0F8093FF03F0E0E252FC4F4E
:100E400080818093BB0085EC86C08093DA038EC0DE
:100E5000E091FF0381E08E0F8093FF038091BB0040
:100E6000F0E0E252FC4F80839091FF038091FE03FB
:100E70006EC0E091FF0381E08E0F8093FF038091AD
:100E8000BB00F0E0E252FC4F80838091DD038111D2
:100E90006DC081E08093DC0384EA61C083E08093CD
:100EA000DB0310926C04CFCF80916C04803208F089
:100EB00051C0E0916C0481E08E0F80936C048091AE
:100EC000BB00F0E0E45BFB4F8083BDCF85EC8093FB
:100ED000BC001092DB0380916C04803230F4E0910E
:100EE0006C04F0E0E45BFB4F108260916C0470E0F6
:100EF000E091D803F091D9038CE494E00995109225
:100F00006C0436C084E08093DB0310924B04109293
:100F10004A04E091D603F091D703099580914A04E1
:100F2000811105C081E080934A0410922A04E09167
:100F30004B0481E08E0F80934B04F0E0E65DFB4FA5
:100F400080818093BB0090914B0480914A04981754
:100F500008F479CF85E88093BC000AC085EC8093C3
:100F6000BC001092DB0304C01092DA030E947505E6
:100F7000FF91EF91BF91AF919F918F917F916F9171
:100F80005F914F913F912F910F900FBE0F901F9047
:100F90001895CF93DF93282F30E0F901E255FF4FEA
:100FA0008491F901E656FF4FD491F901EA57FF4FBA
:100FB000C491CC2391F081110E943106EC2FF0E016
:100FC000EE0FFF1FE458FF4FA591B491EC91ED2374
:100FD00081E090E021F480E002C080E090E0DF91C9
:100FE000CF9108951F93CF93DF93282F30E0F9011D
:100FF000E255FF4F8491F901E656FF4FD491F90174
:10100000EA57FF4FC491CC23C1F0162F81110E94E3
:101010003106EC2FF0E0EE0FFF1FEE58FF4FA591C9
:10102000B4919FB7F894111104C08C91D095D82336
:1010300002C0EC91DE2BDC939FBFDF91CF911F911B
:101040000895CF93DF9390E0FC01E656FF4F249183
:10105000FC01EA57FF4F8491882361F190E0880FEB
:10106000991FFC01E859FF4FC591D491FC01EE583E
:10107000FF4FA591B491611109C09FB7F894888181
:10108000209582238883EC912E230BC0623061F47B
:101090009FB7F8948881322F309583238883EC9111
:1010A0002E2B2C939FBF06C08FB7F894E8812E2B70
:1010B00028838FBFDF91CF9108958F929F92AF9237
:1010C000BF92CF92DF92EF92FF926B017C010E9460
:1010D0005A064B015C01C114D104E104F104F1F0A2
:1010E0000E945A06DC01CB0188199909AA09BB099B
:1010F000883E9340A105B10570F321E0C21AD108E2
:10110000E108F10888EE880E83E0981EA11CB11C4E
:10111000C114D104E104F10419F7DDCFFF90EF9081
:10112000DF90CF90BF90AF909F908F9008952FB792
:10113000F8946091020470910304809104049091EA
:1011400005042FBF08951F920F920FB60F9211241E
:101150002F933F938F939F93AF93BF9380910204FC
:1011600090910304A0910404B0910504309101040E
:1011700023E0230F2D3720F40196A11DB11D05C0DA
:1011800026E8230F0296A11DB11D20930104809330
:10119000020490930304A0930404B0930504809187
:1011A000060490910704A0910804B09109040196E7
:1011B000A11DB11D8093060490930704A093080419
:1011C000B0930904BF91AF919F918F913F912F915F
:1011D0000F900FBE0F901F901895CF92DF92EF9255
:1011E000FF920F931F93CF93DF936C017A018B01D2
:1011F000C0E0D0E0CE15DF0581F0D8016D918D0102
:10120000D601ED91FC910190F081E02DC601099588
:10121000892B11F02196EECF7E01C701DF91CF918E
:101220001F910F91FF90EF90DF90CF900895FC01F8
:10123000538D448D252F30E0842F90E0821B930B3B
:10124000541710F0CF96089501970895FC01918DE1
:10125000828D981761F0828DDF01A80FB11D5D9618
:101260008C91928D9F5F9F73928F90E008958FEF86
:101270009FEF0895FC01918D828D981731F0828D3A
:10128000E80FF11D858D90E008958FEF9FEF089591
:10129000FC01918D228D892F90E0805C9F4F821BF5
:1012A00091098F739927089585EB92E00E94480970
:1012B00021E0892B09F420E0822F0895FC01848D20
:1012C000DF01A80FB11DA35ABF4F2C91848D90E070
:1012D00001968F739927848FA689B7892C93A0894B
:1012E000B1898C91837080648C93938D848D9813D5
:1012F00006C00288F389E02D80818F7D8083089568
:10130000EF92FF920F931F93CF93DF93EC0181E055
:10131000888F9B8D8C8D981305C0E889F989808111
:1013200085FD26C0F62E0B8D10E00F5F1F4F0F734B
:101330001127E02E8C8DE8120CC00FB607FCFACFF7
:10134000E889F989808185FFF5CFCE010E945E0989
:10135000F1CF8B8DFE01E80FF11DE35AFF4FF082B4
:101360009FB7F8940B8FEA89FB89808180620AC05D
:101370009FB7F894EE89FF896083E889F9898081B5
:101380008370806480839FBF81E090E0DF91CF9184
:101390001F910F91FF90EF900895CF93DF93EC0191
:1013A000888D8823C9F0EA89FB89808185FD05C085
:1013B000A889B9898C9186FD0FC00FB607FCF5CFBF
:1013C000808185FFF2CFA889B9898C9185FFEDCF07
:1013D000CE010E945E09E7CFDF91CF91089580E0B2
:1013E00090E0892B29F00E94540981110C9400008F
:1013F0000895089580E090E0089581E08093380298
:1014000008950E947F161F920F920FB60F9211241B
:101410002F933F934F935F936F937F938F939F93FC
:10142000AF93BF93EF93FF9385EB92E00E945E0929
:10143000FF91EF91BF91AF919F918F917F916F91AC
:101440005F914F913F912F910F900FBE0F901F9082
:1014500018951F920F920FB60F9211242F938F930E
:101460009F93EF93FF93E091C502F091C6028081B4
:10147000E091CB02F091CC0282FD12C0908180916C
:10148000CE028F5F8F732091CF02821751F0E091CF
:10149000CE02F0E0EB54FD4F958F8093CE0201C059
:1014A0008081FF91EF919F918F912F910F900FBEAF
:1014B0000F901F901895CF93FC01C48121E02093D9
:1014C000D103C0936D041092D5031092D403848588
:1014D000682B89EA92E00E9402069091D40391322F
:1014E00008F045C08091DB038111FCCF82E080933E
:1014F000DB0381E08093DD038FEF8093DA031092AA
:10150000FF039093FE03A1EBB3E0EEEDF3E080E088
:10151000981721F02D9121938F5FFACF109200043C
:1015200080910004CC0FC82BC09300048091DC0391
:10153000813061F41092DC03809100048093BB0041
:101540008091BC0083FDF8CF85EC01C085EE8093CF
:10155000BC008091DB038230E1F38091DA038F3F9E
:1015600031F08091DA03803211F08091DA03109229
:10157000D5031092D4031092D103CF9108950F9305
:101580001F93CF938C01C62F0E945B0A6C2F64605F
:10159000C8010E945B0A6C2F6B7FC8010E945B0A26
:1015A00083EC90E00197F1F7CF911F910F9108958F
:1015B0000F931F93CF93DF938C01C62FD42F607F9F
:1015C000642B0E94BF0A80E1C89FB00111246D2BDB
:1015D000C801DF91CF911F910F910C94BF0A41E098
:1015E0000E94D80A81E090E00895EF92FF920F9355
:1015F0001F93CF93DF937C018B01C0E0D0E0F80113
:1016000061918F01C7018C0F9D1F0E94DE132196EF
:10161000C430D105A1F784E090E0DF91CF911F9114
:101620000F91FF90EF900895EF92FF920F931F9309
:10163000CF93DF938B010C5F1F4FEB017C01E61A08
:10164000F70AC7018C0F9D1F0E94D6138993C017FC
:10165000D107B9F784E090E0DF91CF911F910F910E
:10166000FF90EF9008951F920F920FB60F921124E2
:101670002F933F934F935F936F937F938F939F939A
:10168000AF93BF93EF93FF930E9459020E949E0075
:10169000FF91EF91BF91AF919F918F917F916F914A
:1016A0005F914F913F912F910F900FBE0F901F9020
:1016B0001895789484B5826084BD84B5816084BDBA
:1016C00085B5826085BD85B5816085BD80916E00E0
:1016D000816080936E001092810080918100826011
:1016E000809381008091810081608093810080914E
:1016F00080008160809380008091B100846080933D
:10170000B1008091B00081608093B00080917A0038
:10171000846080937A0080917A00826080937A005E
:1017200080917A00816080937A0080917A0080684D
:1017300080937A001092C100E091C502F091C60238
:1017400082E08083E091C102F091C2021082E091B8
:10175000C302F091C40280E180831092CD02E09137
:10176000C902F091CA0286E08083E091C702F0913D
:10177000C802808180618083E091C702F091C80235
:10178000808188608083E091C702F091C8028081E7
:1017900080688083E091C702F091C80280818F7DCC
:1017A000808361E08DE00E94210880916800826062
:1017B0008093680080916C008E6080936C008DEF48
:1017C00099E090935E0380935D031092D30310928F
:1017D000D2031092D5031092D4031092DB0381E060
:1017E0008093DD031092DC0361E082E10E94F20746
:1017F00061E083E10E94F2078091B9008E7F8093BF
:10180000B9008091B9008D7F8093B90088E48093FE
:10181000B80085E48093BC0087EA95E09093D703F5
:101820008093D60388EA95E09093D9038093D803F8
:101830001092A9038091AF03823018F098E0909342
:10184000A9038093AC0362E370E080E090E00E9423
:101850005D086091B00384EA93E00E945B0A68EE41
:1018600073E080E090E00E945D0860E384EA93E02A
:101870000E94BF0ACBE4D6E4CE010197F1F760E302
:1018800084EA93E00E94BF0A2197F1F760E384EABB
:1018900093E00E94BF0A83E592E00197F1F760E2CE
:1018A00084EA93E00E94BF0A6091A903606240E06D
:1018B00084EA93E00E94D80A84E08093AA0340E07F
:1018C0006CE084EA93E00E94D80A0E94FF0482E060
:1018D0008093AB0340E066E084EA93E00E94D80A7C
:1018E00040E062E084EA93E00E94D80A8BE39FE143
:1018F0000197F1F788E08093B00360E084EA93E019
:101900000E945B0A0E94FF048FE00E94C907892B96
:10191000C1F060E071E08AE090E00E94140B64E0A6
:1019200071E084E190E00E94140B8EE190E00E944F
:10193000D613809309018FE190E00E94D613809323
:101940000A018FE00E94C907892BD9F3C2E0D0E0D9
:1019500022242394312C0E9459020E949E0000915F
:10196000A7021091A8028091A5029091A6020817E3
:10197000190759F00E94FF0460E070E0CB010E945B
:101980001D031093A6020093A5020230110509F46D
:101990009AC144F40115110581F00130110509F4D3
:1019A000CDC045C40430110509F4E2C20CF43FC2B5
:1019B0000530110509F498C33AC4809194039091BD
:1019C0009503A0919603B091970390934002809362
:1019D0003F028091940390919503A0919603B0915A
:1019E0009703B7FF09C060E070E0CB010E941D03C0
:1019F0001092400210923F028091940390919503BF
:101A0000A0919603B09197030397A105B10554F0F7
:101A100062E070E080E090E00E941D03D0934002FD
:101A2000C0933F0220913F023091400280913D02DD
:101A300090913E022817390701F161E080E00E9491
:101A4000EE028DEE91E00E94EC0262E080E00E94E6
:101A5000EE028DEE91E00E94EC0263E080E00E94D5
:101A6000EE028DEE91E00E94EC0280913F02909197
:101A7000400290933E0280933D0260E083E00E942A
:101A8000EE0283E591E00E94EC0261E083E00E94B7
:101A9000EE028BE591E00E94EC0262E083E00E949E
:101AA000EE028AE691E00E94EC0263E083E00E948D
:101AB000EE0288E791E00E94EC0260913F026F5FC6
:101AC00080E00E94EE0282E891E00E94EC020E9417
:101AD00097080091390210913A0220913B0230910F
:101AE0003C026B017C01C01AD10AE20AF30A970199
:101AF0008601053611052105310508F498C32091AA
:101B0000A7023091A802232B09F091C360933902F8
:101B100070933A0280933B0290933C0260E083E131
:101B20000E94EE028EEE91E00E94EC0260E08FE0F7
:101B30000E94EE020E94920442E0C2C060E086E091
:101B40000E94EE0285E891E00E94EC0260E08BE0EA
:101B50000E94EE028AE891E00E94EC0260E080E1DF
:101B60000E94EE028FE891E00E94EC0261E080E0CA
:101B70000E94EE0284E991E00E94EC0261E086E0BE
:101B80000E94EE0260919102709192028091930204
:101B90009091940241E00E94BE0361E08BE00E94BC
:101BA000EE02609195027091960280919702909159
:101BB000980241E00E94BE0361E080E10E94EE02D3
:101BC0006091990270919A0280919B0290919C027F
:101BD00041E00E94BE03C0906D02D0906E02E09082
:101BE0006F02F09070028091690290916A02A09158
:101BF0006B02B0916C02A7019601281B390B4A0BAE
:101C00005B0BCA01B9010E9456154B015C01809122
:101C1000710290917202A0917302B0917402BC01A2
:101C2000CD016C197D098E099F090E9456156B0123
:101C30007C0162E080E00E94EE028AE991E00E946D
:101C4000EC0262E088E00E94EE0240E0C501B401CF
:101C50000E94BE0362E08EE00E94EE0240E0C701F7
:101C6000B6010E94BE0363E080E00E94EE0220E025
:101C700030E0A901C701B6010E94081618160CF041
:101C8000D6C28FE991E00E94EC0263E08BE00E94F3
:101C9000EE0220E030E04AE754E4C701B6010E94BA
:101CA000AE149B01AC0160E070E080E89FE30E940D
:101CB000AE1420E030E040E752E40E940D1640E010
:101CC0000E94BE03B4C28091940390919503A091A9
:101CD0009603B09197039093400280933F028091C6
:101CE000940390919503A0919603B0919703B7FF49
:101CF00009C060E070E0CB010E941D031092400219
:101D000010923F028091940390919503A0919603C5
:101D1000B09197030497A105B10564F063E070E00A
:101D200080E090E00E941D0343E050E050934002A9
:101D300040933F0220913F023091400280913D024A
:101D400090913E022817390701F161E080E00E947E
:101D5000EE028DEE91E00E94EC0262E080E00E94D3
:101D6000EE028DEE91E00E94EC0263E080E00E94C2
:101D7000EE028DEE91E00E94EC0280913F02909184
:101D8000400290933E0280933D0260E080E00E941A
:101D9000EE0288E791E00E94EC0260E080E10E94A0
:101DA000EE0283EA91E00E94EC0280913F02909162
:101DB000400261E00397DCF483E00E94EE0288EACF
:101DC00091E00E94EC0262E083E00E94EE028AEB66
:101DD00091E00E94EC0263E083E00E94EE028CEC52
:101DE00091E00E94EC0260913F026F5F18C083E0B7
:101DF0000E94EE028AEB91E00E94EC0262E083E036
:101E00000E94EE028CEC91E00E94EC0263E083E021
:101E10000E94EE028EED91E00E94EC0263E080E011
:101E20000E94EE0282E891E00E94EC0200C20E9451
:101E3000FF0460E080E00E94EE0280EF91E00E94EB
:101E4000EC0262E086E00E94EE0260910401709173
:101E50000501809106019091070141E00E94BE03B7
:101E600062E08FE00E94EE028CEF91E00E94EC02B3
:101E70000E9412050E941205009709F465C0BC017A
:101E8000990F880B990B0E94581520E030E040E232
:101E900051E40E94AE14209104013091050140915B
:101EA0000601509107010E943D146B017C0120E066
:101EB00030E040EA50E40E94081618162CF480E046
:101EC00090E0A0EAB0E417C02DEC3CEC4CEC5DE3F4
:101ED000C701B6010E94A91487FD09C0C092040180
:101EE000D0920501E0920601F09207010CC08DEC42
:101EF0009CECACECBDE38093040190930501A093AE
:101F00000601B09307010E94FF0460E080E00E9498
:101F1000EE0280EF91E00E94EC0262E086E00E9417
:101F2000EE0260910401709105018091060190918B
:101F3000070141E00E94BE0362E08FE00E94EE02D2
:101F40008CEF91E00E94EC020E949E00809138028A
:101F5000882309F48FCFD093A802C093A7021092D0
:101F6000380264E071E084E190E00E94F50A5FC10C
:101F70000E94FF0460E080E00E94EE0280E092E0B8
:101F80000E94EC0262E086E00E94EE026091000195
:101F900070910101809102019091030128EE33E0DC
:101FA00040E050E00E940014CA01B9014AE00E94DA
:101FB0007D0362E08FE00E94EE0288E092E00E94E2
:101FC000EC020E9412050E9412058C01892B09F473
:101FD00077C06091000170910101809102019091A0
:101FE00003010E9456156B017C01B801110F880B8B
:101FF000990B0E94581520E030E04AE754E40E9413
:102000000D169B01AC01C701B6010E943D140E9450
:102010002715609300017093010180930201909352
:10202000030161325EE475078105910568F080E087
:1020300090E4ACE9B6E48093040190930501A09389
:102040000601B093070113C0683E734081059105F6
:1020500070F498EEC92E93E0D92EE12CF12CC092A9
:102060000001D0920101E0920201F09203010E946E
:10207000FF0460E080E00E94EE0280E092E00E94B7
:10208000EC0262E086E00E94EE0260910001709135
:102090000101809102019091030128EE33E040E0BC
:1020A00050E00E940014CA01B9014AE00E947D0379
:1020B00062E08FE00E94EE0288E092E00E94EC0273
:1020C0000E949E0080913802882309F47CCFD0932F
:1020D000A802C093A7021092380260E071E08AE083
:1020E00090E00E94F50AA3C00E94FF0460E080E037
:1020F0000E94EE028CE092E00E94EC0262E086E038
:102100000E94EE028091090190910A016AE070E05C
:102110000E94EC139B01072E000C880B990B37FFD4
:1021200003C00E947F0603C04AE00E947D0362E074
:102130008FE00E94EE0283E192E00E94EC020E9496
:1021400012050E9412058C01892B09F457C0609179
:10215000090170910A01072E000C880B990B0E944F
:1021600058156B017C01B801110F880B990B0E9467
:10217000581520E030E040E251E40E940D169B012A
:10218000AC01C701B6010E943D140E94201516162D
:1021900017062CF470930A016093090104C0309271
:1021A0000A01209209010E94FF0460E080E00E9481
:1021B000EE028CE092E00E94EC0262E086E00E9477
:1021C000EE028091090190910A016AE070E00E949C
:1021D000EC139B01072E000C880B990B37FF03C0F3
:1021E0000E947F0603C04AE00E947D0362E08FE008
:1021F0000E94EE0283E192E00E94EC020E949E00A7
:1022000080913802882309F49CCFD093A802C09310
:10221000A70210923802609109018EE190E00E94BD
:10222000DE1360910A018FE190E00E94DE1380913D
:102230003802882309F4ACC1809108018111A8C13A
:102240008091A7029091A8028130910509F49CC168
:102250008230910509F456C1892B09F099C180910A
:10226000940390919503A0919603B0919703892BC5
:102270008A2B8B2B09F024C10E94FF0461E082E0CD
:102280000E94EE0286E192E00E94EC0210929E0211
:1022900010929D02E5E7F2E0ADE4B2E011921192F6
:1022A000119211921D921D921D921D9222E0ED3904
:1022B000F207A1F70E9497086B017C016093490225
:1022C00070934A0280934B0290934C020E949204B6
:1022D00060934502709346028093470290934802B0
:1022E0000E9492044B015C0120914502309146020C
:1022F00040914702509148020E94A91487FF08C0EC
:102300008092450290924602A0924702B092480203
:102310002091450230914602409147025091480277
:10232000C501B4010E943C142091040130910501C3
:1023300040910601509107010E94A91487FF69C1CD
:102340000E949708DC01CB018C199D09AE09BF09D9
:1023500000910001109101012091020130910301CF
:1023600080179107A207B30708F4BACF52C10E94A1
:102370009708DC01CB018C199D09AE09BF090091BA
:102380000001109101012091020130910301801799
:102390009107A207B30790F50E9492044B015C01DC
:1023A00020914102309142024091430250914402F7
:1023B0000E940816181644F480924102909242023C
:1023C000A0924302B09244024090410250904202D7
:1023D0006090430270904402A5019401C301B201D0
:1023E0000E943C14209104013091050140910601A6
:1023F000509107010E94A91487FDB9CF00919D0259
:1024000010919E025801AA0CBB1CAA0CBB1CF50122
:10241000EB58FD4F40825182628273820E9497087E
:10242000F501E35BFD4F60837183828393830F5FCC
:102430001F4F10939E0200939D020A301105B4F4C1
:102440000E949708DC01CB018C199D09AE09BF09D8
:1024500000910001109101012091020130910301CE
:1024600080179107A207B30708F430CF0E9497089E
:10247000DC01CB018C199D09AE09BF090091000157
:102480001091010120910201309103018017910701
:10249000A207B30708F4C8C00E94FF0462E086E008
:1024A0000E94EE0280E092E00E94EC0260E177E29E
:1024B00080E090E00E945D081092A8021092A702AE
:1024C0008091940390919503A0919603B091970306
:1024D0000197A105B10521F43092A8022092A7022C
:1024E0008091940390919503A0919603B0919703E6
:1024F0000297A105B10509F04BC0D093A802C09383
:10250000A70246C08091940390919503A0919603F1
:10251000B0919703892B8A2B8B2B31F443E050E049
:102520005093A8024093A702809194039091950341
:10253000A0919603B09197030197A105B10531F4DD
:1025400084E090E09093A8028093A7028091940386
:1025500090919503A0919603B09197030297A105DE
:10256000B10531F4A5E0B0E0B093A802A093A702B2
:102570008091940390919503A0919603B091970355
:102580000397A105B10521F41092A8021092A702A9
:10259000109238028FE00E94C907892B21F08091A8
:1025A0000801811156C00E9497080091A102109164
:1025B000A2022091A3023091A4026B017C01C01AF7
:1025C000D10AE20AF30A48EEC41643E0D406E10455
:1025D000F104E0F06093A1027093A2028093A30241
:1025E0009093A40280919F029091A002892B29F4DC
:1025F0003092A00220929F0204C01092A00210927A
:102600009F0260919F028DE00E94F2070E94EF09F5
:10261000A2C90E9492046093410270934202809387
:10262000430290934402B8CE0E94FF0462E086E029
:102630000E94EE0285E292E00E94EC0268EE73E0F6
:1026400080E090E00E945D083092A8022092A702EC
:1026500037CF10920801A7CFCF93DF93E9EAF2E0DA
:102660001382128288EE93E0A0E0B0E08483958329
:10267000A683B78327E231E031832083E5EBF2E0E4
:102680001382128284839583A683B78389E391E0C2
:102690009183808385EC90E09587848784EC90E03B
:1026A0009787868780EC90E0918B808B81EC90E01F
:1026B000938B828B82EC90E0958B848B86EC90E000
:1026C000978B868B118E128E138E148EE4EAF3E0B4
:1026D000138212828BE491E091838083118687E2DA
:1026E000848384E1828784E083871486C9E8D3E009
:1026F00080E190E09983888381E190E09B838A83E5
:1027000082E090E09D838C8362E080E10E9421085A
:1027100062E081E10E94210883E08E831F82188697
:1027200019861A861B861C861D861E861F86188A99
:10273000198A1A8AE2E5F3E082E390E093838283C8
:1027400088E592E09583848388EE93E0978386837F
:1027500012861486138616861586108A1786128AA4
:10276000118A148A138A168A158A108E178A128E75
:10277000118E148E138E168E158E10A2178E12A225
:1027800011A214A213A210A617A212A611A614A693
:1027900013A616A615A68FE090E09183808311867C
:1027A000108662E0DF91CF910C942108F999FECF59
:1027B00092BD81BDF89A992780B50895262FF99981
:1027C000FECF1FBA92BD81BD20BD0FB6F894FA9A14
:1027D000F99A0FBE0196089597FB072E16F4009400
:1027E00007D077FD09D00E94221407FC05D03EF4E3
:1027F000909581959F4F0895709561957F4F0895AD
:10280000A1E21A2EAA1BBB1BFD010DC0AA1FBB1FF4
:10281000EE1FFF1FA217B307E407F50720F0A21B66
:10282000B30BE40BF50B661F771F881F991F1A94D3
:1028300069F760957095809590959B01AC01BD01FD
:10284000CF010895AA1BBB1B51E107C0AA1FBB1FE4
:10285000A617B70710F0A61BB70B881F991F5A952C
:10286000A9F780959095BC01CD010895EE0FFF1F4B
:102870000590F491E02D09945058BB27AA270E9497
:1028800054140C94CE150E94C01538F00E94C71540
:1028900020F039F49F3F19F426F40C94BD150EF482
:1028A000E095E7FB0C94B715E92F0E94DF1558F36C
:1028B000BA17620773078407950720F079F4A6F525
:1028C0000C9401160EF4E0950B2EBA2FA02D0B01DF
:1028D000B90190010C01CA01A0011124FF27591B65
:1028E00099F0593F50F4503E68F11A16F040A22F6B
:1028F000232F342F4427585FF3CF469537952795DC
:10290000A795F0405395C9F77EF41F16BA0B620BDA
:10291000730B840BBAF09150A1F0FF0FBB1F661F21
:10292000771F881FC2F70EC0BA0F621F731F841F64
:1029300048F4879577956795B795F7959E3F08F08A
:10294000B0CF9395880F08F09927EE0F979587954C
:1029500008950E94931508F481E008950E94C2141E
:102960000C94CE150E94C71558F00E94C01540F077
:1029700029F45F3F29F00C94B71551110C940216FD
:102980000C94BD150E94DF1568F39923B1F355230C
:1029900091F3951B550BBB27AA2762177307840772
:1029A00038F09F5F5F4F220F331F441FAA1FA9F308
:1029B00035D00E2E3AF0E0E832D091505040E695F6
:1029C000001CCAF72BD0FE2F29D0660F771F881F57
:1029D000BB1F261737074807AB07B0E809F0BB0B4A
:1029E000802DBF01FF2793585F4F3AF09E3F51055E
:1029F00078F00C94B7150C9402165F3FE4F3983E00
:102A0000D4F3869577956795B795F7959F5FC9F746
:102A1000880F911D9695879597F90895E1E0660FC7
:102A2000771F881FBB1F621773078407BA0720F040
:102A3000621B730B840BBA0BEE1F88F7E0950895A9
:102A40000E9427156894B1110C94021608950E94F3
:102A5000E71588F09F5798F0B92F9927B751B0F034
:102A6000E1F0660F771F881F991F1AF0BA95C9F712
:102A700014C0B13091F00E940116B1E008950C9499
:102A80000116672F782F8827B85F39F0B93FCCF34C
:102A9000869577956795B395D9F73EF4909580958F
:102AA000709561957F4F8F4F9F4F0895E89409C0AF
:102AB00097FB3EF490958095709561957F4F8F4F71
:102AC0009F4F9923A9F0F92F96E9BB279395F69587
:102AD000879577956795B795F111F8CFFAF4BB0F05
:102AE00011F460FF1BC06F5F7F4F8F4F9F4F16C069
:102AF000882311F096E911C0772321F09EE8872FF3
:102B0000762F05C0662371F096E8862F70E060E0AE
:102B10002AF09A95660F771F881FDAF7880F969527
:102B2000879597F90895990F0008550FAA0BE0E8CB
:102B3000FEEF16161706E807F907C0F0121613067F
:102B4000E407F50798F0621B730B840B950B39F4BF
:102B50000A2661F0232B242B252B21F408950A2625
:102B600009F4A140A6958FEF811D811D089597F965
:102B70009F6780E870E060E008959FEF80EC089523
:102B800000240A941616170618060906089500244C
:102B90000A9412161306140605060895092E0394C6
:102BA000000C11F4882352F0BB0F40F4BF2B11F43A
:102BB00060FF04C06F5F7F4F8F4F9F4F089557FD99
:102BC0009058440F551F59F05F3F71F04795880F9B
:102BD00097FB991F61F09F3F79F087950895121632
:102BE00013061406551FF2CF4695F1DF08C01616DE
:102BF00017061806991FF1CF86957105610508948F
:102C00000895E894BB2766277727CB0197F90895A5
:102C10000E94931508F48FEF08950E9420160C94DB
:102C2000CE150E94C01538F00E94C71520F09523DC
:102C300011F00C94B7150C94BD1511240C940216C8
:102C40000E94DF1570F3959FC1F3950F50E0551F5B
:102C5000629FF001729FBB27F00DB11D639FAA27F1
:102C6000F00DB11DAA1F649F6627B00DA11D661F40
:102C7000829F2227B00DA11D621F739FB00DA11D61
:102C8000621F839FA00D611D221F749F3327A00D1B
:102C9000611D231F849F600D211D822F762F6A2FB7
:102CA00011249F5750409AF0F1F088234AF0EE0F1C
:102CB000FF1FBB1F661F771F881F91505040A9F749
:102CC0009E3F510580F00C94B7150C9402165F3F9F
:102CD000E4F3983ED4F3869577956795B795F79585
:102CE000E7959F5FC1F7FE2B880F911D96958795FD
:102CF00097F908950E949315880B990B089581E028
:0C2D000090E0F8940C948416F894FFCF37
:102D0C0060EA000000000040010A000000400014CE
:102D1C0000540000FF0100010000FFFF0000010053
:102D2C0001FF00000000000206D505FA09A905CD37
:102D3C0005B905AA05000000008009ED081709CDAA
:102D4C0009480926093A0900000000EF0AED08FAC3
:102D5C0009F90957616E6B6C65720073746172745A
:102D6C0065204D657373756E67007A6569676520BC
:102D7C004D657373756E6700506172616D65746536
:102D8C0072002D3E004D657331004D657332004D60
:102D9C0065733300447275636B005A656974007215
:102DAC00706D0076312E330053636877656C6C65FB
:102DBC002061656E6465726E200054696D656F7577
:102DCC00742061656E6465726E20200046696C74B7
:102DDC0065722061656E6465726E202020007A75C4
:102DEC00727565636B20202020202020202020007D
:102DFC0053636877656C6C776572740062617200FE
:102E0C0054696D656F75740073656B0046696C74FD
:102E1C006572006D73004D657373756E67206C6120
:102E2C006575667400666572746967006E616E0024
:082E3C00696E66006F76660006
:00000001FF
